{
  "_format": "hh-sol-artifact-1",
  "contractName": "Cropsin",
  "sourceName": "contracts/Cropsin.sol",
  "abi": [
    {
      "inputs": [
        {
          "internalType": "string",
          "name": "uri",
          "type": "string"
        }
      ],
      "stateMutability": "nonpayable",
      "type": "constructor"
    },
    {
      "anonymous": false,
      "inputs": [
        {
          "indexed": true,
          "internalType": "address",
          "name": "account",
          "type": "address"
        },
        {
          "indexed": true,
          "internalType": "address",
          "name": "operator",
          "type": "address"
        },
        {
          "indexed": false,
          "internalType": "bool",
          "name": "approved",
          "type": "bool"
        }
      ],
      "name": "ApprovalForAll",
      "type": "event"
    },
    {
      "anonymous": false,
      "inputs": [
        {
          "indexed": true,
          "internalType": "address",
          "name": "previousOwner",
          "type": "address"
        },
        {
          "indexed": true,
          "internalType": "address",
          "name": "newOwner",
          "type": "address"
        }
      ],
      "name": "OwnershipTransferred",
      "type": "event"
    },
    {
      "anonymous": false,
      "inputs": [
        {
          "indexed": true,
          "internalType": "address",
          "name": "operator",
          "type": "address"
        },
        {
          "indexed": true,
          "internalType": "address",
          "name": "from",
          "type": "address"
        },
        {
          "indexed": true,
          "internalType": "address",
          "name": "to",
          "type": "address"
        },
        {
          "indexed": false,
          "internalType": "uint256[]",
          "name": "ids",
          "type": "uint256[]"
        },
        {
          "indexed": false,
          "internalType": "uint256[]",
          "name": "values",
          "type": "uint256[]"
        }
      ],
      "name": "TransferBatch",
      "type": "event"
    },
    {
      "anonymous": false,
      "inputs": [
        {
          "indexed": true,
          "internalType": "address",
          "name": "operator",
          "type": "address"
        },
        {
          "indexed": true,
          "internalType": "address",
          "name": "from",
          "type": "address"
        },
        {
          "indexed": true,
          "internalType": "address",
          "name": "to",
          "type": "address"
        },
        {
          "indexed": false,
          "internalType": "uint256",
          "name": "id",
          "type": "uint256"
        },
        {
          "indexed": false,
          "internalType": "uint256",
          "name": "value",
          "type": "uint256"
        }
      ],
      "name": "TransferSingle",
      "type": "event"
    },
    {
      "anonymous": false,
      "inputs": [
        {
          "indexed": false,
          "internalType": "string",
          "name": "value",
          "type": "string"
        },
        {
          "indexed": true,
          "internalType": "uint256",
          "name": "id",
          "type": "uint256"
        }
      ],
      "name": "URI",
      "type": "event"
    },
    {
      "inputs": [],
      "name": "ERC20_TOKEN_ID",
      "outputs": [
        {
          "internalType": "uint256",
          "name": "",
          "type": "uint256"
        }
      ],
      "stateMutability": "view",
      "type": "function"
    },
    {
      "inputs": [],
      "name": "ERC20_TOTAL_SUPPLY",
      "outputs": [
        {
          "internalType": "uint256",
          "name": "",
          "type": "uint256"
        }
      ],
      "stateMutability": "view",
      "type": "function"
    },
    {
      "inputs": [
        {
          "internalType": "address",
          "name": "account",
          "type": "address"
        },
        {
          "internalType": "uint256",
          "name": "id",
          "type": "uint256"
        }
      ],
      "name": "balanceOf",
      "outputs": [
        {
          "internalType": "uint256",
          "name": "",
          "type": "uint256"
        }
      ],
      "stateMutability": "view",
      "type": "function"
    },
    {
      "inputs": [
        {
          "internalType": "address[]",
          "name": "accounts",
          "type": "address[]"
        },
        {
          "internalType": "uint256[]",
          "name": "ids",
          "type": "uint256[]"
        }
      ],
      "name": "balanceOfBatch",
      "outputs": [
        {
          "internalType": "uint256[]",
          "name": "",
          "type": "uint256[]"
        }
      ],
      "stateMutability": "view",
      "type": "function"
    },
    {
      "inputs": [
        {
          "internalType": "uint256",
          "name": "id",
          "type": "uint256"
        }
      ],
      "name": "exists",
      "outputs": [
        {
          "internalType": "bool",
          "name": "",
          "type": "bool"
        }
      ],
      "stateMutability": "view",
      "type": "function"
    },
    {
      "inputs": [
        {
          "internalType": "address",
          "name": "to",
          "type": "address"
        },
        {
          "internalType": "uint256",
          "name": "amount",
          "type": "uint256"
        }
      ],
      "name": "fungibleTransfer",
      "outputs": [],
      "stateMutability": "nonpayable",
      "type": "function"
    },
    {
      "inputs": [
        {
          "internalType": "address",
          "name": "account",
          "type": "address"
        },
        {
          "internalType": "address",
          "name": "operator",
          "type": "address"
        }
      ],
      "name": "isApprovedForAll",
      "outputs": [
        {
          "internalType": "bool",
          "name": "",
          "type": "bool"
        }
      ],
      "stateMutability": "view",
      "type": "function"
    },
    {
      "inputs": [
        {
          "internalType": "address",
          "name": "to",
          "type": "address"
        },
        {
          "internalType": "uint256",
          "name": "amount",
          "type": "uint256"
        },
        {
          "internalType": "bytes",
          "name": "data",
          "type": "bytes"
        }
      ],
      "name": "mint",
      "outputs": [
        {
          "internalType": "uint256",
          "name": "",
          "type": "uint256"
        }
      ],
      "stateMutability": "nonpayable",
      "type": "function"
    },
    {
      "inputs": [],
      "name": "owner",
      "outputs": [
        {
          "internalType": "address",
          "name": "",
          "type": "address"
        }
      ],
      "stateMutability": "view",
      "type": "function"
    },
    {
      "inputs": [],
      "name": "renounceOwnership",
      "outputs": [],
      "stateMutability": "nonpayable",
      "type": "function"
    },
    {
      "inputs": [
        {
          "internalType": "address",
          "name": "from",
          "type": "address"
        },
        {
          "internalType": "address",
          "name": "to",
          "type": "address"
        },
        {
          "internalType": "uint256[]",
          "name": "ids",
          "type": "uint256[]"
        },
        {
          "internalType": "uint256[]",
          "name": "amounts",
          "type": "uint256[]"
        },
        {
          "internalType": "bytes",
          "name": "data",
          "type": "bytes"
        }
      ],
      "name": "safeBatchTransferFrom",
      "outputs": [],
      "stateMutability": "nonpayable",
      "type": "function"
    },
    {
      "inputs": [
        {
          "internalType": "address",
          "name": "from",
          "type": "address"
        },
        {
          "internalType": "address",
          "name": "to",
          "type": "address"
        },
        {
          "internalType": "uint256",
          "name": "id",
          "type": "uint256"
        },
        {
          "internalType": "uint256",
          "name": "amount",
          "type": "uint256"
        },
        {
          "internalType": "bytes",
          "name": "data",
          "type": "bytes"
        }
      ],
      "name": "safeTransferFrom",
      "outputs": [],
      "stateMutability": "nonpayable",
      "type": "function"
    },
    {
      "inputs": [
        {
          "internalType": "uint256",
          "name": "amount",
          "type": "uint256"
        },
        {
          "internalType": "bytes",
          "name": "data",
          "type": "bytes"
        }
      ],
      "name": "selfMint",
      "outputs": [
        {
          "internalType": "uint256",
          "name": "",
          "type": "uint256"
        }
      ],
      "stateMutability": "nonpayable",
      "type": "function"
    },
    {
      "inputs": [
        {
          "internalType": "address",
          "name": "operator",
          "type": "address"
        },
        {
          "internalType": "bool",
          "name": "approved",
          "type": "bool"
        }
      ],
      "name": "setApprovalForAll",
      "outputs": [],
      "stateMutability": "nonpayable",
      "type": "function"
    },
    {
      "inputs": [
        {
          "internalType": "string",
          "name": "newuri",
          "type": "string"
        }
      ],
      "name": "setURI",
      "outputs": [],
      "stateMutability": "nonpayable",
      "type": "function"
    },
    {
      "inputs": [
        {
          "internalType": "bytes4",
          "name": "interfaceId",
          "type": "bytes4"
        }
      ],
      "name": "supportsInterface",
      "outputs": [
        {
          "internalType": "bool",
          "name": "",
          "type": "bool"
        }
      ],
      "stateMutability": "view",
      "type": "function"
    },
    {
      "inputs": [
        {
          "internalType": "uint256",
          "name": "id",
          "type": "uint256"
        }
      ],
      "name": "totalSupply",
      "outputs": [
        {
          "internalType": "uint256",
          "name": "",
          "type": "uint256"
        }
      ],
      "stateMutability": "view",
      "type": "function"
    },
    {
      "inputs": [
        {
          "internalType": "address",
          "name": "newOwner",
          "type": "address"
        }
      ],
      "name": "transferOwnership",
      "outputs": [],
      "stateMutability": "nonpayable",
      "type": "function"
    },
    {
      "inputs": [
        {
          "internalType": "uint256",
          "name": "",
          "type": "uint256"
        }
      ],
      "name": "uri",
      "outputs": [
        {
          "internalType": "string",
          "name": "",
          "type": "string"
        }
      ],
      "stateMutability": "view",
      "type": "function"
    }
  ],
  "bytecode": "0x60806040523480156200001157600080fd5b506040516200453b3803806200453b833981810160405281019062000037919062000a3a565b806200004981620000aa60201b60201c565b506200006a6200005e620000c660201b60201c565b620000ce60201b60201c565b620000a26200007e620000c660201b60201c565b66038d7ea4c68000604051806020016040528060008152506200019460201b60201c565b50506200115a565b8060029080519060200190620000c2929190620008d5565b5050565b600033905090565b6000600460009054906101000a900473ffffffffffffffffffffffffffffffffffffffff16905081600460006101000a81548173ffffffffffffffffffffffffffffffffffffffff021916908373ffffffffffffffffffffffffffffffffffffffff1602179055508173ffffffffffffffffffffffffffffffffffffffff168173ffffffffffffffffffffffffffffffffffffffff167f8be0079c531659141344cd1fd0a4f28419497f9722a3daafe3b4186f6b6457e060405160405180910390a35050565b6000620001ad6005620001e760201b62000d421760201c565b6000620001c66005620001fd60201b62000d581760201c565b9050620001dc858286866200020b60201b60201c565b809150509392505050565b6001816000016000828254019250508190555050565b600081600001549050919050565b600073ffffffffffffffffffffffffffffffffffffffff168473ffffffffffffffffffffffffffffffffffffffff1614156200027e576040517f08c379a0000000000000000000000000000000000000000000000000000000008152600401620002759062000d27565b60405180910390fd5b600062000290620000c660201b60201c565b9050620002c981600087620002ab88620003d060201b60201c565b620002bc88620003d060201b60201c565b876200049960201b60201c565b8260008086815260200190815260200160002060008773ffffffffffffffffffffffffffffffffffffffff1673ffffffffffffffffffffffffffffffffffffffff16815260200190815260200160002060008282546200032a919062000e15565b925050819055508473ffffffffffffffffffffffffffffffffffffffff16600073ffffffffffffffffffffffffffffffffffffffff168273ffffffffffffffffffffffffffffffffffffffff167fc3d58168c5ae7397731d063d5bbf3d657854427343f4c083240f7aacaa2d0f628787604051620003aa92919062000d49565b60405180910390a4620003c981600087878787620006ca60201b60201c565b5050505050565b60606000600167ffffffffffffffff81111562000416577f4e487b7100000000000000000000000000000000000000000000000000000000600052604160045260246000fd5b604051908082528060200260200182016040528015620004455781602001602082028036833780820191505090505b509050828160008151811062000484577f4e487b7100000000000000000000000000000000000000000000000000000000600052603260045260246000fd5b60200260200101818152505080915050919050565b620004b4868686868686620008ba60201b62000d661760201c565b600073ffffffffffffffffffffffffffffffffffffffff168573ffffffffffffffffffffffffffffffffffffffff161415620005bb5760005b8351811015620005b95782818151811062000531577f4e487b7100000000000000000000000000000000000000000000000000000000600052603260045260246000fd5b60200260200101516003600086848151811062000577577f4e487b7100000000000000000000000000000000000000000000000000000000600052603260045260246000fd5b6020026020010151815260200190815260200160002060008282546200059e919062000e15565b9250508190555080620005b19062000f83565b9050620004ed565b505b600073ffffffffffffffffffffffffffffffffffffffff168473ffffffffffffffffffffffffffffffffffffffff161415620006c25760005b8351811015620006c05782818151811062000638577f4e487b7100000000000000000000000000000000000000000000000000000000600052603260045260246000fd5b6020026020010151600360008684815181106200067e577f4e487b7100000000000000000000000000000000000000000000000000000000600052603260045260246000fd5b602002602001015181526020019081526020016000206000828254620006a5919062000e72565b9250508190555080620006b89062000f83565b9050620005f4565b505b505050505050565b620006f68473ffffffffffffffffffffffffffffffffffffffff16620008c260201b62000d6e1760201c565b15620008b2578373ffffffffffffffffffffffffffffffffffffffff1663f23a6e6187878686866040518663ffffffff1660e01b81526004016200073f95949392919062000c5b565b602060405180830381600087803b1580156200075a57600080fd5b505af19250505080156200078e57506040513d601f19601f820116820180604052508101906200078b919062000a0e565b60015b62000826576200079d6200107c565b80620007aa5750620007e9565b806040517f08c379a0000000000000000000000000000000000000000000000000000000008152600401620007e0919062000cbf565b60405180910390fd5b6040517f08c379a00000000000000000000000000000000000000000000000000000000081526004016200081d9062000ce3565b60405180910390fd5b63f23a6e6160e01b7bffffffffffffffffffffffffffffffffffffffffffffffffffffffff1916817bffffffffffffffffffffffffffffffffffffffffffffffffffffffff191614620008b0576040517f08c379a0000000000000000000000000000000000000000000000000000000008152600401620008a79062000d05565b60405180910390fd5b505b505050505050565b505050505050565b600080823b905060008111915050919050565b828054620008e39062000f4d565b90600052602060002090601f01602090048101928262000907576000855562000953565b82601f106200092257805160ff191683800117855562000953565b8280016001018555821562000953579182015b828111156200095257825182559160200191906001019062000935565b5b50905062000962919062000966565b5090565b5b808211156200098157600081600090555060010162000967565b5090565b60006200099c620009968462000daa565b62000d76565b905082815260208101848484011115620009b557600080fd5b620009c284828562000f17565b509392505050565b600081519050620009db8162001140565b92915050565b600082601f830112620009f357600080fd5b815162000a0584826020860162000985565b91505092915050565b60006020828403121562000a2157600080fd5b600062000a3184828501620009ca565b91505092915050565b60006020828403121562000a4d57600080fd5b600082015167ffffffffffffffff81111562000a6857600080fd5b62000a7684828501620009e1565b91505092915050565b62000a8a8162000ead565b82525050565b600062000a9d8262000ddd565b62000aa9818562000df3565b935062000abb81856020860162000f17565b62000ac6816200105e565b840191505092915050565b600062000ade8262000de8565b62000aea818562000e04565b935062000afc81856020860162000f17565b62000b07816200105e565b840191505092915050565b600062000b2160348362000e04565b91507f455243313135353a207472616e7366657220746f206e6f6e204552433131353560008301527f526563656976657220696d706c656d656e7465720000000000000000000000006020830152604082019050919050565b600062000b8960288362000e04565b91507f455243313135353a204552433131353552656365697665722072656a6563746560008301527f6420746f6b656e730000000000000000000000000000000000000000000000006020830152604082019050919050565b600062000bf160218362000e04565b91507f455243313135353a206d696e7420746f20746865207a65726f2061646472657360008301527f73000000000000000000000000000000000000000000000000000000000000006020830152604082019050919050565b62000c558162000f0d565b82525050565b600060a08201905062000c72600083018862000a7f565b62000c81602083018762000a7f565b62000c90604083018662000c4a565b62000c9f606083018562000c4a565b818103608083015262000cb3818462000a90565b90509695505050505050565b6000602082019050818103600083015262000cdb818462000ad1565b905092915050565b6000602082019050818103600083015262000cfe8162000b12565b9050919050565b6000602082019050818103600083015262000d208162000b7a565b9050919050565b6000602082019050818103600083015262000d428162000be2565b9050919050565b600060408201905062000d60600083018562000c4a565b62000d6f602083018462000c4a565b9392505050565b6000604051905081810181811067ffffffffffffffff8211171562000da05762000d9f6200102f565b5b8060405250919050565b600067ffffffffffffffff82111562000dc85762000dc76200102f565b5b601f19601f8301169050602081019050919050565b600081519050919050565b600081519050919050565b600082825260208201905092915050565b600082825260208201905092915050565b600062000e228262000f0d565b915062000e2f8362000f0d565b9250827fffffffffffffffffffffffffffffffffffffffffffffffffffffffffffffffff0382111562000e675762000e6662000fd1565b5b828201905092915050565b600062000e7f8262000f0d565b915062000e8c8362000f0d565b92508282101562000ea25762000ea162000fd1565b5b828203905092915050565b600062000eba8262000eed565b9050919050565b60007fffffffff0000000000000000000000000000000000000000000000000000000082169050919050565b600073ffffffffffffffffffffffffffffffffffffffff82169050919050565b6000819050919050565b60005b8381101562000f3757808201518184015260208101905062000f1a565b8381111562000f47576000848401525b50505050565b6000600282049050600182168062000f6657607f821691505b6020821081141562000f7d5762000f7c62001000565b5b50919050565b600062000f908262000f0d565b91507fffffffffffffffffffffffffffffffffffffffffffffffffffffffffffffffff82141562000fc65762000fc562000fd1565b5b600182019050919050565b7f4e487b7100000000000000000000000000000000000000000000000000000000600052601160045260246000fd5b7f4e487b7100000000000000000000000000000000000000000000000000000000600052602260045260246000fd5b7f4e487b7100000000000000000000000000000000000000000000000000000000600052604160045260246000fd5b6000601f19601f8301169050919050565b60008160e01c9050919050565b600060443d10156200108e576200113d565b60046000803e620010a16000516200106f565b6308c379a08114620010b457506200113d565b60405160043d036004823e80513d602482011167ffffffffffffffff82111715620010e2575050506200113d565b808201805167ffffffffffffffff811115620011035750505050506200113d565b8060208301013d850181111562001120575050505050506200113d565b6200112b826200105e565b60208401016040528296505050505050505b90565b6200114b8162000ec1565b81146200115757600080fd5b50565b6133d1806200116a6000396000f3fe608060405234801561001057600080fd5b50600436106101205760003560e01c80636370e8fc116100ad578063b7cb68c411610071578063b7cb68c414610319578063bd85b03914610349578063e985e9c514610379578063f242432a146103a9578063f2fde38b146103c557610120565b80636370e8fc14610287578063715018a6146102a55780638da5cb5b146102af57806394d008ef146102cd578063a22cb465146102fd57610120565b806311407930116100f457806311407930146101d157806311e28d59146101ed5780632eb2c2d61461020b5780634e1273f4146102275780634f558e791461025757610120565b8062fdd58e1461012557806301ffc9a71461015557806302fe5305146101855780630e89341c146101a1575b600080fd5b61013f600480360381019061013a9190612327565b6103e1565b60405161014c9190612e85565b60405180910390f35b61016f600480360381019061016a9190612436565b6104aa565b60405161017c9190612ca8565b60405180910390f35b61019f600480360381019061019a9190612488565b61058c565b005b6101bb60048036038101906101b691906124c9565b610614565b6040516101c89190612cc3565b60405180910390f35b6101eb60048036038101906101e69190612327565b6106a8565b005b6101f561074c565b6040516102029190612e85565b60405180910390f35b6102256004803603810190610220919061219d565b610757565b005b610241600480360381019061023c91906123ca565b6107f8565b60405161024e9190612c4f565b60405180910390f35b610271600480360381019061026c91906124c9565b6109a9565b60405161027e9190612ca8565b60405180910390f35b61028f6109bd565b60405161029c9190612e85565b60405180910390f35b6102ad6109c2565b005b6102b7610a4a565b6040516102c49190612b72565b60405180910390f35b6102e760048036038101906102e29190612363565b610a74565b6040516102f49190612e85565b60405180910390f35b610317600480360381019061031291906122eb565b610aa5565b005b610333600480360381019061032e91906124f2565b610abb565b6040516103409190612e85565b60405180910390f35b610363600480360381019061035e91906124c9565b610ad7565b6040516103709190612e85565b60405180910390f35b610393600480360381019061038e9190612161565b610af4565b6040516103a09190612ca8565b60405180910390f35b6103c360048036038101906103be919061225c565b610b88565b005b6103df60048036038101906103da9190612138565b610c29565b005b60008073ffffffffffffffffffffffffffffffffffffffff168373ffffffffffffffffffffffffffffffffffffffff161415610452576040517f08c379a000000000000000000000000000000000000000000000000000000000815260040161044990612d25565b60405180910390fd5b60008083815260200190815260200160002060008473ffffffffffffffffffffffffffffffffffffffff1673ffffffffffffffffffffffffffffffffffffffff16815260200190815260200160002054905092915050565b60007fd9b67a26000000000000000000000000000000000000000000000000000000007bffffffffffffffffffffffffffffffffffffffffffffffffffffffff1916827bffffffffffffffffffffffffffffffffffffffffffffffffffffffff1916148061057557507f0e89341c000000000000000000000000000000000000000000000000000000007bffffffffffffffffffffffffffffffffffffffffffffffffffffffff1916827bffffffffffffffffffffffffffffffffffffffffffffffffffffffff1916145b80610585575061058482610d81565b5b9050919050565b610594610deb565b73ffffffffffffffffffffffffffffffffffffffff166105b2610a4a565b73ffffffffffffffffffffffffffffffffffffffff1614610608576040517f08c379a00000000000000000000000000000000000000000000000000000000081526004016105ff90612de5565b60405180910390fd5b61061181610df3565b50565b60606002805461062390613163565b80601f016020809104026020016040519081016040528092919081815260200182805461064f90613163565b801561069c5780601f106106715761010080835404028352916020019161069c565b820191906000526020600020905b81548152906001019060200180831161067f57829003601f168201915b50505050509050919050565b6106b0610deb565b73ffffffffffffffffffffffffffffffffffffffff166106ce610a4a565b73ffffffffffffffffffffffffffffffffffffffff1614610724576040517f08c379a000000000000000000000000000000000000000000000000000000000815260040161071b90612de5565b60405180910390fd5b61074861072f610deb565b8360018460405180602001604052806000815250610b88565b5050565b66038d7ea4c6800081565b61075f610deb565b73ffffffffffffffffffffffffffffffffffffffff168573ffffffffffffffffffffffffffffffffffffffff1614806107a557506107a48561079f610deb565b610af4565b5b6107e4576040517f08c379a00000000000000000000000000000000000000000000000000000000081526004016107db90612da5565b60405180910390fd5b6107f18585858585610e0d565b5050505050565b6060815183511461083e576040517f08c379a000000000000000000000000000000000000000000000000000000000815260040161083590612e25565b60405180910390fd5b6000835167ffffffffffffffff811115610881577f4e487b7100000000000000000000000000000000000000000000000000000000600052604160045260246000fd5b6040519080825280602002602001820160405280156108af5781602001602082028036833780820191505090505b50905060005b845181101561099e576109488582815181106108fa577f4e487b7100000000000000000000000000000000000000000000000000000000600052603260045260246000fd5b602002602001015185838151811061093b577f4e487b7100000000000000000000000000000000000000000000000000000000600052603260045260246000fd5b60200260200101516103e1565b828281518110610981577f4e487b7100000000000000000000000000000000000000000000000000000000600052603260045260246000fd5b6020026020010181815250508061099790613195565b90506108b5565b508091505092915050565b6000806109b583610ad7565b119050919050565b600181565b6109ca610deb565b73ffffffffffffffffffffffffffffffffffffffff166109e8610a4a565b73ffffffffffffffffffffffffffffffffffffffff1614610a3e576040517f08c379a0000000000000000000000000000000000000000000000000000000008152600401610a3590612de5565b60405180910390fd5b610a48600061116d565b565b6000600460009054906101000a900473ffffffffffffffffffffffffffffffffffffffff16905090565b6000610a806005610d42565b6000610a8c6005610d58565b9050610a9a85828686611233565b809150509392505050565b610ab7610ab0610deb565b83836113c9565b5050565b6000610acf610ac8610deb565b8484610a74565b905092915050565b600060036000838152602001908152602001600020549050919050565b6000600160008473ffffffffffffffffffffffffffffffffffffffff1673ffffffffffffffffffffffffffffffffffffffff16815260200190815260200160002060008373ffffffffffffffffffffffffffffffffffffffff1673ffffffffffffffffffffffffffffffffffffffff16815260200190815260200160002060009054906101000a900460ff16905092915050565b610b90610deb565b73ffffffffffffffffffffffffffffffffffffffff168573ffffffffffffffffffffffffffffffffffffffff161480610bd65750610bd585610bd0610deb565b610af4565b5b610c15576040517f08c379a0000000000000000000000000000000000000000000000000000000008152600401610c0c90612d65565b60405180910390fd5b610c228585858585611536565b5050505050565b610c31610deb565b73ffffffffffffffffffffffffffffffffffffffff16610c4f610a4a565b73ffffffffffffffffffffffffffffffffffffffff1614610ca5576040517f08c379a0000000000000000000000000000000000000000000000000000000008152600401610c9c90612de5565b60405180910390fd5b600073ffffffffffffffffffffffffffffffffffffffff168173ffffffffffffffffffffffffffffffffffffffff161415610d15576040517f08c379a0000000000000000000000000000000000000000000000000000000008152600401610d0c90612d45565b60405180910390fd5b6000610d29610d22610deb565b60016103e1565b9050610d3582826106a8565b610d3e8261116d565b5050565b6001816000016000828254019250508190555050565b600081600001549050919050565b505050505050565b600080823b905060008111915050919050565b60007f01ffc9a7000000000000000000000000000000000000000000000000000000007bffffffffffffffffffffffffffffffffffffffffffffffffffffffff1916827bffffffffffffffffffffffffffffffffffffffffffffffffffffffff1916149050919050565b600033905090565b8060029080519060200190610e09929190611e30565b5050565b8151835114610e51576040517f08c379a0000000000000000000000000000000000000000000000000000000008152600401610e4890612e45565b60405180910390fd5b600073ffffffffffffffffffffffffffffffffffffffff168473ffffffffffffffffffffffffffffffffffffffff161415610ec1576040517f08c379a0000000000000000000000000000000000000000000000000000000008152600401610eb890612d85565b60405180910390fd5b6000610ecb610deb565b9050610edb8187878787876117b8565b60005b84518110156110d8576000858281518110610f22577f4e487b7100000000000000000000000000000000000000000000000000000000600052603260045260246000fd5b602002602001015190506000858381518110610f67577f4e487b7100000000000000000000000000000000000000000000000000000000600052603260045260246000fd5b60200260200101519050600080600084815260200190815260200160002060008b73ffffffffffffffffffffffffffffffffffffffff1673ffffffffffffffffffffffffffffffffffffffff16815260200190815260200160002054905081811015611008576040517f08c379a0000000000000000000000000000000000000000000000000000000008152600401610fff90612dc5565b60405180910390fd5b81810360008085815260200190815260200160002060008c73ffffffffffffffffffffffffffffffffffffffff1673ffffffffffffffffffffffffffffffffffffffff168152602001908152602001600020819055508160008085815260200190815260200160002060008b73ffffffffffffffffffffffffffffffffffffffff1673ffffffffffffffffffffffffffffffffffffffff16815260200190815260200160002060008282546110bd9190613023565b92505081905550505050806110d190613195565b9050610ede565b508473ffffffffffffffffffffffffffffffffffffffff168673ffffffffffffffffffffffffffffffffffffffff168273ffffffffffffffffffffffffffffffffffffffff167f4a39dc06d4c0dbc64b70af90fd698a233a518aa5d07e595d983b8c0526c8f7fb878760405161114f929190612c71565b60405180910390a46111658187878787876119ca565b505050505050565b6000600460009054906101000a900473ffffffffffffffffffffffffffffffffffffffff16905081600460006101000a81548173ffffffffffffffffffffffffffffffffffffffff021916908373ffffffffffffffffffffffffffffffffffffffff1602179055508173ffffffffffffffffffffffffffffffffffffffff168173ffffffffffffffffffffffffffffffffffffffff167f8be0079c531659141344cd1fd0a4f28419497f9722a3daafe3b4186f6b6457e060405160405180910390a35050565b600073ffffffffffffffffffffffffffffffffffffffff168473ffffffffffffffffffffffffffffffffffffffff1614156112a3576040517f08c379a000000000000000000000000000000000000000000000000000000000815260040161129a90612e65565b60405180910390fd5b60006112ad610deb565b90506112ce816000876112bf88611b9a565b6112c888611b9a565b876117b8565b8260008086815260200190815260200160002060008773ffffffffffffffffffffffffffffffffffffffff1673ffffffffffffffffffffffffffffffffffffffff168152602001908152602001600020600082825461132d9190613023565b925050819055508473ffffffffffffffffffffffffffffffffffffffff16600073ffffffffffffffffffffffffffffffffffffffff168273ffffffffffffffffffffffffffffffffffffffff167fc3d58168c5ae7397731d063d5bbf3d657854427343f4c083240f7aacaa2d0f6287876040516113ab929190612ea0565b60405180910390a46113c281600087878787611c60565b5050505050565b8173ffffffffffffffffffffffffffffffffffffffff168373ffffffffffffffffffffffffffffffffffffffff161415611438576040517f08c379a000000000000000000000000000000000000000000000000000000000815260040161142f90612e05565b60405180910390fd5b80600160008573ffffffffffffffffffffffffffffffffffffffff1673ffffffffffffffffffffffffffffffffffffffff16815260200190815260200160002060008473ffffffffffffffffffffffffffffffffffffffff1673ffffffffffffffffffffffffffffffffffffffff16815260200190815260200160002060006101000a81548160ff0219169083151502179055508173ffffffffffffffffffffffffffffffffffffffff168373ffffffffffffffffffffffffffffffffffffffff167f17307eab39ab6107e8899845ad3d59bd9653f200f220920489ca2b5937696c31836040516115299190612ca8565b60405180910390a3505050565b600073ffffffffffffffffffffffffffffffffffffffff168473ffffffffffffffffffffffffffffffffffffffff1614156115a6576040517f08c379a000000000000000000000000000000000000000000000000000000000815260040161159d90612d85565b60405180910390fd5b60006115b0610deb565b90506115d08187876115c188611b9a565b6115ca88611b9a565b876117b8565b600080600086815260200190815260200160002060008873ffffffffffffffffffffffffffffffffffffffff1673ffffffffffffffffffffffffffffffffffffffff16815260200190815260200160002054905083811015611667576040517f08c379a000000000000000000000000000000000000000000000000000000000815260040161165e90612dc5565b60405180910390fd5b83810360008087815260200190815260200160002060008973ffffffffffffffffffffffffffffffffffffffff1673ffffffffffffffffffffffffffffffffffffffff168152602001908152602001600020819055508360008087815260200190815260200160002060008873ffffffffffffffffffffffffffffffffffffffff1673ffffffffffffffffffffffffffffffffffffffff168152602001908152602001600020600082825461171c9190613023565b925050819055508573ffffffffffffffffffffffffffffffffffffffff168773ffffffffffffffffffffffffffffffffffffffff168373ffffffffffffffffffffffffffffffffffffffff167fc3d58168c5ae7397731d063d5bbf3d657854427343f4c083240f7aacaa2d0f628888604051611799929190612ea0565b60405180910390a46117af828888888888611c60565b50505050505050565b6117c6868686868686610d66565b600073ffffffffffffffffffffffffffffffffffffffff168573ffffffffffffffffffffffffffffffffffffffff1614156118c45760005b83518110156118c257828181518110611840577f4e487b7100000000000000000000000000000000000000000000000000000000600052603260045260246000fd5b602002602001015160036000868481518110611885577f4e487b7100000000000000000000000000000000000000000000000000000000600052603260045260246000fd5b6020026020010151815260200190815260200160002060008282546118aa9190613023565b92505081905550806118bb90613195565b90506117fe565b505b600073ffffffffffffffffffffffffffffffffffffffff168473ffffffffffffffffffffffffffffffffffffffff1614156119c25760005b83518110156119c05782818151811061193e577f4e487b7100000000000000000000000000000000000000000000000000000000600052603260045260246000fd5b602002602001015160036000868481518110611983577f4e487b7100000000000000000000000000000000000000000000000000000000600052603260045260246000fd5b6020026020010151815260200190815260200160002060008282546119a89190613079565b92505081905550806119b990613195565b90506118fc565b505b505050505050565b6119e98473ffffffffffffffffffffffffffffffffffffffff16610d6e565b15611b92578373ffffffffffffffffffffffffffffffffffffffff1663bc197c8187878686866040518663ffffffff1660e01b8152600401611a2f959493929190612b8d565b602060405180830381600087803b158015611a4957600080fd5b505af1925050508015611a7a57506040513d601f19601f82011682018060405250810190611a77919061245f565b60015b611b0957611a86613289565b80611a915750611ace565b806040517f08c379a0000000000000000000000000000000000000000000000000000000008152600401611ac59190612cc3565b60405180910390fd5b6040517f08c379a0000000000000000000000000000000000000000000000000000000008152600401611b0090612ce5565b60405180910390fd5b63bc197c8160e01b7bffffffffffffffffffffffffffffffffffffffffffffffffffffffff1916817bffffffffffffffffffffffffffffffffffffffffffffffffffffffff191614611b90576040517f08c379a0000000000000000000000000000000000000000000000000000000008152600401611b8790612d05565b60405180910390fd5b505b505050505050565b60606000600167ffffffffffffffff811115611bdf577f4e487b7100000000000000000000000000000000000000000000000000000000600052604160045260246000fd5b604051908082528060200260200182016040528015611c0d5781602001602082028036833780820191505090505b5090508281600081518110611c4b577f4e487b7100000000000000000000000000000000000000000000000000000000600052603260045260246000fd5b60200260200101818152505080915050919050565b611c7f8473ffffffffffffffffffffffffffffffffffffffff16610d6e565b15611e28578373ffffffffffffffffffffffffffffffffffffffff1663f23a6e6187878686866040518663ffffffff1660e01b8152600401611cc5959493929190612bf5565b602060405180830381600087803b158015611cdf57600080fd5b505af1925050508015611d1057506040513d601f19601f82011682018060405250810190611d0d919061245f565b60015b611d9f57611d1c613289565b80611d275750611d64565b806040517f08c379a0000000000000000000000000000000000000000000000000000000008152600401611d5b9190612cc3565b60405180910390fd5b6040517f08c379a0000000000000000000000000000000000000000000000000000000008152600401611d9690612ce5565b60405180910390fd5b63f23a6e6160e01b7bffffffffffffffffffffffffffffffffffffffffffffffffffffffff1916817bffffffffffffffffffffffffffffffffffffffffffffffffffffffff191614611e26576040517f08c379a0000000000000000000000000000000000000000000000000000000008152600401611e1d90612d05565b60405180910390fd5b505b505050505050565b828054611e3c90613163565b90600052602060002090601f016020900481019282611e5e5760008555611ea5565b82601f10611e7757805160ff1916838001178555611ea5565b82800160010185558215611ea5579182015b82811115611ea4578251825591602001919060010190611e89565b5b509050611eb29190611eb6565b5090565b5b80821115611ecf576000816000905550600101611eb7565b5090565b6000611ee6611ee184612efa565b612ec9565b90508083825260208201905082856020860282011115611f0557600080fd5b60005b85811015611f355781611f1b8882612027565b845260208401935060208301925050600181019050611f08565b5050509392505050565b6000611f52611f4d84612f26565b612ec9565b90508083825260208201905082856020860282011115611f7157600080fd5b60005b85811015611fa15781611f878882612123565b845260208401935060208301925050600181019050611f74565b5050509392505050565b6000611fbe611fb984612f52565b612ec9565b905082815260208101848484011115611fd657600080fd5b611fe1848285613121565b509392505050565b6000611ffc611ff784612f82565b612ec9565b90508281526020810184848401111561201457600080fd5b61201f848285613121565b509392505050565b6000813590506120368161333f565b92915050565b600082601f83011261204d57600080fd5b813561205d848260208601611ed3565b91505092915050565b600082601f83011261207757600080fd5b8135612087848260208601611f3f565b91505092915050565b60008135905061209f81613356565b92915050565b6000813590506120b48161336d565b92915050565b6000815190506120c98161336d565b92915050565b600082601f8301126120e057600080fd5b81356120f0848260208601611fab565b91505092915050565b600082601f83011261210a57600080fd5b813561211a848260208601611fe9565b91505092915050565b60008135905061213281613384565b92915050565b60006020828403121561214a57600080fd5b600061215884828501612027565b91505092915050565b6000806040838503121561217457600080fd5b600061218285828601612027565b925050602061219385828601612027565b9150509250929050565b600080600080600060a086880312156121b557600080fd5b60006121c388828901612027565b95505060206121d488828901612027565b945050604086013567ffffffffffffffff8111156121f157600080fd5b6121fd88828901612066565b935050606086013567ffffffffffffffff81111561221a57600080fd5b61222688828901612066565b925050608086013567ffffffffffffffff81111561224357600080fd5b61224f888289016120cf565b9150509295509295909350565b600080600080600060a0868803121561227457600080fd5b600061228288828901612027565b955050602061229388828901612027565b94505060406122a488828901612123565b93505060606122b588828901612123565b925050608086013567ffffffffffffffff8111156122d257600080fd5b6122de888289016120cf565b9150509295509295909350565b600080604083850312156122fe57600080fd5b600061230c85828601612027565b925050602061231d85828601612090565b9150509250929050565b6000806040838503121561233a57600080fd5b600061234885828601612027565b925050602061235985828601612123565b9150509250929050565b60008060006060848603121561237857600080fd5b600061238686828701612027565b935050602061239786828701612123565b925050604084013567ffffffffffffffff8111156123b457600080fd5b6123c0868287016120cf565b9150509250925092565b600080604083850312156123dd57600080fd5b600083013567ffffffffffffffff8111156123f757600080fd5b6124038582860161203c565b925050602083013567ffffffffffffffff81111561242057600080fd5b61242c85828601612066565b9150509250929050565b60006020828403121561244857600080fd5b6000612456848285016120a5565b91505092915050565b60006020828403121561247157600080fd5b600061247f848285016120ba565b91505092915050565b60006020828403121561249a57600080fd5b600082013567ffffffffffffffff8111156124b457600080fd5b6124c0848285016120f9565b91505092915050565b6000602082840312156124db57600080fd5b60006124e984828501612123565b91505092915050565b6000806040838503121561250557600080fd5b600061251385828601612123565b925050602083013567ffffffffffffffff81111561253057600080fd5b61253c858286016120cf565b9150509250929050565b60006125528383612b54565b60208301905092915050565b612567816130ad565b82525050565b600061257882612fc2565b6125828185612ff0565b935061258d83612fb2565b8060005b838110156125be5781516125a58882612546565b97506125b083612fe3565b925050600181019050612591565b5085935050505092915050565b6125d4816130bf565b82525050565b60006125e582612fcd565b6125ef8185613001565b93506125ff818560208601613130565b6126088161326b565b840191505092915050565b600061261e82612fd8565b6126288185613012565b9350612638818560208601613130565b6126418161326b565b840191505092915050565b6000612659603483613012565b91507f455243313135353a207472616e7366657220746f206e6f6e204552433131353560008301527f526563656976657220696d706c656d656e7465720000000000000000000000006020830152604082019050919050565b60006126bf602883613012565b91507f455243313135353a204552433131353552656365697665722072656a6563746560008301527f6420746f6b656e730000000000000000000000000000000000000000000000006020830152604082019050919050565b6000612725602b83613012565b91507f455243313135353a2062616c616e636520717565727920666f7220746865207a60008301527f65726f20616464726573730000000000000000000000000000000000000000006020830152604082019050919050565b600061278b602683613012565b91507f4f776e61626c653a206e6577206f776e657220697320746865207a65726f206160008301527f64647265737300000000000000000000000000000000000000000000000000006020830152604082019050919050565b60006127f1602983613012565b91507f455243313135353a2063616c6c6572206973206e6f74206f776e6572206e6f7260008301527f20617070726f76656400000000000000000000000000000000000000000000006020830152604082019050919050565b6000612857602583613012565b91507f455243313135353a207472616e7366657220746f20746865207a65726f20616460008301527f64726573730000000000000000000000000000000000000000000000000000006020830152604082019050919050565b60006128bd603283613012565b91507f455243313135353a207472616e736665722063616c6c6572206973206e6f742060008301527f6f776e6572206e6f7220617070726f76656400000000000000000000000000006020830152604082019050919050565b6000612923602a83613012565b91507f455243313135353a20696e73756666696369656e742062616c616e636520666f60008301527f72207472616e73666572000000000000000000000000000000000000000000006020830152604082019050919050565b6000612989602083613012565b91507f4f776e61626c653a2063616c6c6572206973206e6f7420746865206f776e65726000830152602082019050919050565b60006129c9602983613012565b91507f455243313135353a2073657474696e6720617070726f76616c2073746174757360008301527f20666f722073656c6600000000000000000000000000000000000000000000006020830152604082019050919050565b6000612a2f602983613012565b91507f455243313135353a206163636f756e747320616e6420696473206c656e67746860008301527f206d69736d6174636800000000000000000000000000000000000000000000006020830152604082019050919050565b6000612a95602883613012565b91507f455243313135353a2069647320616e6420616d6f756e7473206c656e6774682060008301527f6d69736d617463680000000000000000000000000000000000000000000000006020830152604082019050919050565b6000612afb602183613012565b91507f455243313135353a206d696e7420746f20746865207a65726f2061646472657360008301527f73000000000000000000000000000000000000000000000000000000000000006020830152604082019050919050565b612b5d81613117565b82525050565b612b6c81613117565b82525050565b6000602082019050612b87600083018461255e565b92915050565b600060a082019050612ba2600083018861255e565b612baf602083018761255e565b8181036040830152612bc1818661256d565b90508181036060830152612bd5818561256d565b90508181036080830152612be981846125da565b90509695505050505050565b600060a082019050612c0a600083018861255e565b612c17602083018761255e565b612c246040830186612b63565b612c316060830185612b63565b8181036080830152612c4381846125da565b90509695505050505050565b60006020820190508181036000830152612c69818461256d565b905092915050565b60006040820190508181036000830152612c8b818561256d565b90508181036020830152612c9f818461256d565b90509392505050565b6000602082019050612cbd60008301846125cb565b92915050565b60006020820190508181036000830152612cdd8184612613565b905092915050565b60006020820190508181036000830152612cfe8161264c565b9050919050565b60006020820190508181036000830152612d1e816126b2565b9050919050565b60006020820190508181036000830152612d3e81612718565b9050919050565b60006020820190508181036000830152612d5e8161277e565b9050919050565b60006020820190508181036000830152612d7e816127e4565b9050919050565b60006020820190508181036000830152612d9e8161284a565b9050919050565b60006020820190508181036000830152612dbe816128b0565b9050919050565b60006020820190508181036000830152612dde81612916565b9050919050565b60006020820190508181036000830152612dfe8161297c565b9050919050565b60006020820190508181036000830152612e1e816129bc565b9050919050565b60006020820190508181036000830152612e3e81612a22565b9050919050565b60006020820190508181036000830152612e5e81612a88565b9050919050565b60006020820190508181036000830152612e7e81612aee565b9050919050565b6000602082019050612e9a6000830184612b63565b92915050565b6000604082019050612eb56000830185612b63565b612ec26020830184612b63565b9392505050565b6000604051905081810181811067ffffffffffffffff82111715612ef057612eef61323c565b5b8060405250919050565b600067ffffffffffffffff821115612f1557612f1461323c565b5b602082029050602081019050919050565b600067ffffffffffffffff821115612f4157612f4061323c565b5b602082029050602081019050919050565b600067ffffffffffffffff821115612f6d57612f6c61323c565b5b601f19601f8301169050602081019050919050565b600067ffffffffffffffff821115612f9d57612f9c61323c565b5b601f19601f8301169050602081019050919050565b6000819050602082019050919050565b600081519050919050565b600081519050919050565b600081519050919050565b6000602082019050919050565b600082825260208201905092915050565b600082825260208201905092915050565b600082825260208201905092915050565b600061302e82613117565b915061303983613117565b9250827fffffffffffffffffffffffffffffffffffffffffffffffffffffffffffffffff0382111561306e5761306d6131de565b5b828201905092915050565b600061308482613117565b915061308f83613117565b9250828210156130a2576130a16131de565b5b828203905092915050565b60006130b8826130f7565b9050919050565b60008115159050919050565b60007fffffffff0000000000000000000000000000000000000000000000000000000082169050919050565b600073ffffffffffffffffffffffffffffffffffffffff82169050919050565b6000819050919050565b82818337600083830152505050565b60005b8381101561314e578082015181840152602081019050613133565b8381111561315d576000848401525b50505050565b6000600282049050600182168061317b57607f821691505b6020821081141561318f5761318e61320d565b5b50919050565b60006131a082613117565b91507fffffffffffffffffffffffffffffffffffffffffffffffffffffffffffffffff8214156131d3576131d26131de565b5b600182019050919050565b7f4e487b7100000000000000000000000000000000000000000000000000000000600052601160045260246000fd5b7f4e487b7100000000000000000000000000000000000000000000000000000000600052602260045260246000fd5b7f4e487b7100000000000000000000000000000000000000000000000000000000600052604160045260246000fd5b6000601f19601f8301169050919050565b60008160e01c9050919050565b600060443d10156132995761333c565b60046000803e6132aa60005161327c565b6308c379a081146132bb575061333c565b60405160043d036004823e80513d602482011167ffffffffffffffff821117156132e75750505061333c565b808201805167ffffffffffffffff81111561330657505050505061333c565b8060208301013d85018111156133215750505050505061333c565b61332a8261326b565b60208401016040528296505050505050505b90565b613348816130ad565b811461335357600080fd5b50565b61335f816130bf565b811461336a57600080fd5b50565b613376816130cb565b811461338157600080fd5b50565b61338d81613117565b811461339857600080fd5b5056fea2646970667358221220d038b503a72bbe79af1ed1217118414b2a6ecf93cf8290be9f8bc5cba448779a64736f6c63430008000033",
  "linkReferences": {},
  "deployedLinkReferences": {}
}