{
  "_format": "hh-sol-artifact-1",
  "contractName": "Marketplace",
  "sourceName": "contracts/Marketplace.sol",
  "abi": [
    {
      "inputs": [
        {
          "internalType": "contract Cropsin",
          "name": "_cropsin",
          "type": "address"
        }
      ],
      "stateMutability": "nonpayable",
      "type": "constructor"
    },
    {
      "anonymous": false,
      "inputs": [
        {
          "indexed": true,
          "internalType": "address",
          "name": "previousOwner",
          "type": "address"
        },
        {
          "indexed": true,
          "internalType": "address",
          "name": "newOwner",
          "type": "address"
        }
      ],
      "name": "OwnershipTransferred",
      "type": "event"
    },
    {
      "anonymous": false,
      "inputs": [
        {
          "indexed": false,
          "internalType": "address",
          "name": "account",
          "type": "address"
        }
      ],
      "name": "Paused",
      "type": "event"
    },
    {
      "anonymous": false,
      "inputs": [
        {
          "indexed": true,
          "internalType": "address",
          "name": "from",
          "type": "address"
        },
        {
          "indexed": false,
          "internalType": "uint256",
          "name": "tokenId",
          "type": "uint256"
        },
        {
          "indexed": false,
          "internalType": "uint256",
          "name": "quantity",
          "type": "uint256"
        },
        {
          "indexed": false,
          "internalType": "uint256",
          "name": "price",
          "type": "uint256"
        }
      ],
      "name": "TokenPutOnSale",
      "type": "event"
    },
    {
      "anonymous": false,
      "inputs": [
        {
          "indexed": true,
          "internalType": "address",
          "name": "from",
          "type": "address"
        },
        {
          "indexed": false,
          "internalType": "uint256",
          "name": "tokenId",
          "type": "uint256"
        }
      ],
      "name": "TokenRemovedFromSale",
      "type": "event"
    },
    {
      "anonymous": false,
      "inputs": [
        {
          "indexed": true,
          "internalType": "address",
          "name": "from",
          "type": "address"
        },
        {
          "indexed": true,
          "internalType": "address",
          "name": "to",
          "type": "address"
        },
        {
          "indexed": false,
          "internalType": "uint256",
          "name": "tokenId",
          "type": "uint256"
        },
        {
          "indexed": false,
          "internalType": "uint256",
          "name": "quantity",
          "type": "uint256"
        },
        {
          "indexed": false,
          "internalType": "uint256",
          "name": "totalPrice",
          "type": "uint256"
        }
      ],
      "name": "TokenSold",
      "type": "event"
    },
    {
      "anonymous": false,
      "inputs": [
        {
          "indexed": false,
          "internalType": "address",
          "name": "account",
          "type": "address"
        }
      ],
      "name": "Unpaused",
      "type": "event"
    },
    {
      "inputs": [
        {
          "internalType": "uint256",
          "name": "",
          "type": "uint256"
        },
        {
          "internalType": "address",
          "name": "",
          "type": "address"
        }
      ],
      "name": "_onSaleTokens",
      "outputs": [
        {
          "internalType": "uint256",
          "name": "quantity",
          "type": "uint256"
        },
        {
          "internalType": "uint256",
          "name": "price",
          "type": "uint256"
        }
      ],
      "stateMutability": "view",
      "type": "function"
    },
    {
      "inputs": [
        {
          "internalType": "uint256",
          "name": "tokenId",
          "type": "uint256"
        },
        {
          "internalType": "address",
          "name": "from",
          "type": "address"
        }
      ],
      "name": "availability",
      "outputs": [
        {
          "components": [
            {
              "internalType": "uint256",
              "name": "quantity",
              "type": "uint256"
            },
            {
              "internalType": "uint256",
              "name": "price",
              "type": "uint256"
            }
          ],
          "internalType": "struct Marketplace.OnSaleToken",
          "name": "",
          "type": "tuple"
        }
      ],
      "stateMutability": "view",
      "type": "function"
    },
    {
      "inputs": [
        {
          "internalType": "address",
          "name": "from",
          "type": "address"
        },
        {
          "internalType": "uint256",
          "name": "tokenId",
          "type": "uint256"
        },
        {
          "internalType": "uint256",
          "name": "quantity",
          "type": "uint256"
        }
      ],
      "name": "buyTokenFrom",
      "outputs": [],
      "stateMutability": "nonpayable",
      "type": "function"
    },
    {
      "inputs": [],
      "name": "owner",
      "outputs": [
        {
          "internalType": "address",
          "name": "",
          "type": "address"
        }
      ],
      "stateMutability": "view",
      "type": "function"
    },
    {
      "inputs": [],
      "name": "pause",
      "outputs": [],
      "stateMutability": "nonpayable",
      "type": "function"
    },
    {
      "inputs": [],
      "name": "paused",
      "outputs": [
        {
          "internalType": "bool",
          "name": "",
          "type": "bool"
        }
      ],
      "stateMutability": "view",
      "type": "function"
    },
    {
      "inputs": [
        {
          "internalType": "address",
          "name": "from",
          "type": "address"
        },
        {
          "internalType": "uint256",
          "name": "tokenId",
          "type": "uint256"
        },
        {
          "internalType": "uint256",
          "name": "quantity",
          "type": "uint256"
        },
        {
          "internalType": "uint256",
          "name": "price",
          "type": "uint256"
        }
      ],
      "name": "putTokenOnSaleFrom",
      "outputs": [],
      "stateMutability": "nonpayable",
      "type": "function"
    },
    {
      "inputs": [
        {
          "internalType": "address",
          "name": "from",
          "type": "address"
        },
        {
          "internalType": "uint256",
          "name": "tokenId",
          "type": "uint256"
        }
      ],
      "name": "removeTokenFromSaleFrom",
      "outputs": [],
      "stateMutability": "nonpayable",
      "type": "function"
    },
    {
      "inputs": [],
      "name": "renounceOwnership",
      "outputs": [],
      "stateMutability": "nonpayable",
      "type": "function"
    },
    {
      "inputs": [
        {
          "internalType": "address",
          "name": "newOwner",
          "type": "address"
        }
      ],
      "name": "transferOwnership",
      "outputs": [],
      "stateMutability": "nonpayable",
      "type": "function"
    },
    {
      "inputs": [],
      "name": "unpause",
      "outputs": [],
      "stateMutability": "nonpayable",
      "type": "function"
    }
  ],
  "bytecode": "0x60806040523480156200001157600080fd5b50604051620022903803806200229083398181016040528101906200003791906200019d565b60008060006101000a81548160ff0219169083151502179055506200007162000065620000b960201b60201c565b620000c160201b60201c565b80600260006101000a81548173ffffffffffffffffffffffffffffffffffffffff021916908373ffffffffffffffffffffffffffffffffffffffff160217905550506200022b565b600033905090565b60008060019054906101000a900473ffffffffffffffffffffffffffffffffffffffff16905081600060016101000a81548173ffffffffffffffffffffffffffffffffffffffff021916908373ffffffffffffffffffffffffffffffffffffffff1602179055508173ffffffffffffffffffffffffffffffffffffffff168173ffffffffffffffffffffffffffffffffffffffff167f8be0079c531659141344cd1fd0a4f28419497f9722a3daafe3b4186f6b6457e060405160405180910390a35050565b600081519050620001978162000211565b92915050565b600060208284031215620001b057600080fd5b6000620001c08482850162000186565b91505092915050565b6000620001d682620001f1565b9050919050565b6000620001ea82620001c9565b9050919050565b600073ffffffffffffffffffffffffffffffffffffffff82169050919050565b6200021c81620001dd565b81146200022857600080fd5b50565b612055806200023b6000396000f3fe608060405234801561001057600080fd5b50600436106100a95760003560e01c806378d375861161007157806378d375861461012c5780638456cb59146101485780638d9d7c48146101525780638da5cb5b14610183578063d5037f2f146101a1578063f2fde38b146101bd576100a9565b806318d97d1c146100ae5780632751b92a146100de5780633f4ba83a146100fa5780635c975abb14610104578063715018a614610122575b600080fd5b6100c860048036038101906100c39190611766565b6101d9565b6040516100d59190611e1d565b60405180910390f35b6100f860048036038101906100f391906116b1565b610258565b005b610102610722565b005b61010c6107a8565b6040516101199190611cc2565b60405180910390f35b61012a6107be565b005b61014660048036038101906101419190611662565b610846565b005b610150610f94565b005b61016c60048036038101906101679190611766565b61101a565b60405161017a929190611e53565b60405180910390f35b61018b61104b565b6040516101989190611bfd565b60405180910390f35b6101bb60048036038101906101b69190611626565b611074565b005b6101d760048036038101906101d291906115fd565b61125b565b005b6101e161158f565b6001600084815260200190815260200160002060008373ffffffffffffffffffffffffffffffffffffffff1673ffffffffffffffffffffffffffffffffffffffff16815260200190815260200160002060405180604001604052908160008201548152602001600182015481525050905092915050565b83610261611353565b73ffffffffffffffffffffffffffffffffffffffff168173ffffffffffffffffffffffffffffffffffffffff16148061034a5750600260009054906101000a900473ffffffffffffffffffffffffffffffffffffffff1673ffffffffffffffffffffffffffffffffffffffff1663e985e9c5826102dc611353565b6040518363ffffffff1660e01b81526004016102f9929190611c18565b60206040518083038186803b15801561031157600080fd5b505afa158015610325573d6000803e3d6000fd5b505050506040513d601f19601f820116820180604052508101906103499190611714565b5b610389576040517f08c379a000000000000000000000000000000000000000000000000000000000815260040161038090611d7d565b60405180910390fd5b600260009054906101000a900473ffffffffffffffffffffffffffffffffffffffff1673ffffffffffffffffffffffffffffffffffffffff16634f558e79856040518263ffffffff1660e01b81526004016103e49190611e38565b60206040518083038186803b1580156103fc57600080fd5b505afa158015610410573d6000803e3d6000fd5b505050506040513d601f19601f820116820180604052508101906104349190611714565b610473576040517f08c379a000000000000000000000000000000000000000000000000000000000815260040161046a90611ddd565b60405180910390fd5b82600260009054906101000a900473ffffffffffffffffffffffffffffffffffffffff1673ffffffffffffffffffffffffffffffffffffffff1662fdd58e87876040518363ffffffff1660e01b81526004016104d0929190611c99565b60206040518083038186803b1580156104e857600080fd5b505afa1580156104fc573d6000803e3d6000fd5b505050506040513d601f19601f82011682018060405250810190610520919061173d565b1015610561576040517f08c379a000000000000000000000000000000000000000000000000000000000815260040161055890611dbd565b60405180910390fd5b600260009054906101000a900473ffffffffffffffffffffffffffffffffffffffff1673ffffffffffffffffffffffffffffffffffffffff1663e985e9c586306040518363ffffffff1660e01b81526004016105be929190611c18565b60206040518083038186803b1580156105d657600080fd5b505afa1580156105ea573d6000803e3d6000fd5b505050506040513d601f19601f8201168201806040525081019061060e9190611714565b61064d576040517f08c379a000000000000000000000000000000000000000000000000000000000815260040161064490611cdd565b60405180910390fd5b6040518060400160405280848152602001838152506001600086815260200190815260200160002060008773ffffffffffffffffffffffffffffffffffffffff1673ffffffffffffffffffffffffffffffffffffffff16815260200190815260200160002060008201518160000155602082015181600101559050508473ffffffffffffffffffffffffffffffffffffffff167f19234825beb4502c2725ac50f12829335b93c1d4a62bf84de197ff58e0032eb085858560405161071393929190611e7c565b60405180910390a25050505050565b61072a611353565b73ffffffffffffffffffffffffffffffffffffffff1661074861104b565b73ffffffffffffffffffffffffffffffffffffffff161461079e576040517f08c379a000000000000000000000000000000000000000000000000000000000815260040161079590611dfd565b60405180910390fd5b6107a661135b565b565b60008060009054906101000a900460ff16905090565b6107c6611353565b73ffffffffffffffffffffffffffffffffffffffff166107e461104b565b73ffffffffffffffffffffffffffffffffffffffff161461083a576040517f08c379a000000000000000000000000000000000000000000000000000000000815260040161083190611dfd565b60405180910390fd5b61084460006113fc565b565b600260009054906101000a900473ffffffffffffffffffffffffffffffffffffffff1673ffffffffffffffffffffffffffffffffffffffff16634f558e79836040518263ffffffff1660e01b81526004016108a19190611e38565b60206040518083038186803b1580156108b957600080fd5b505afa1580156108cd573d6000803e3d6000fd5b505050506040513d601f19601f820116820180604052508101906108f19190611714565b610930576040517f08c379a000000000000000000000000000000000000000000000000000000000815260040161092790611ddd565b60405180910390fd5b600260009054906101000a900473ffffffffffffffffffffffffffffffffffffffff1673ffffffffffffffffffffffffffffffffffffffff1663e985e9c584306040518363ffffffff1660e01b815260040161098d929190611c18565b60206040518083038186803b1580156109a557600080fd5b505afa1580156109b9573d6000803e3d6000fd5b505050506040513d601f19601f820116820180604052508101906109dd9190611714565b610a1c576040517f08c379a0000000000000000000000000000000000000000000000000000000008152600401610a1390611cdd565b60405180910390fd5b600260009054906101000a900473ffffffffffffffffffffffffffffffffffffffff1673ffffffffffffffffffffffffffffffffffffffff1663e985e9c5610a62611353565b306040518363ffffffff1660e01b8152600401610a80929190611c18565b60206040518083038186803b158015610a9857600080fd5b505afa158015610aac573d6000803e3d6000fd5b505050506040513d601f19601f82011682018060405250810190610ad09190611714565b610b0f576040517f08c379a0000000000000000000000000000000000000000000000000000000008152600401610b0690611d1d565b60405180910390fd5b60006001600084815260200190815260200160002060008573ffffffffffffffffffffffffffffffffffffffff1673ffffffffffffffffffffffffffffffffffffffff1681526020019081526020016000206040518060400160405290816000820154815260200160018201548152505090508181600001511015610bc9576040517f08c379a0000000000000000000000000000000000000000000000000000000008152600401610bc090611dbd565b60405180910390fd5b6000610be28260200151846114c190919063ffffffff16565b905080600260009054906101000a900473ffffffffffffffffffffffffffffffffffffffff1673ffffffffffffffffffffffffffffffffffffffff1662fdd58e610c2a611353565b60016040518363ffffffff1660e01b8152600401610c49929190611c99565b60206040518083038186803b158015610c6157600080fd5b505afa158015610c75573d6000803e3d6000fd5b505050506040513d601f19601f82011682018060405250810190610c99919061173d565b1015610cda576040517f08c379a0000000000000000000000000000000000000000000000000000000008152600401610cd190611d5d565b60405180910390fd5b6000610cf38484600001516114d790919063ffffffff16565b90506000811115610d8357604051806040016040528082815260200184602001518152506001600087815260200190815260200160002060008873ffffffffffffffffffffffffffffffffffffffff1673ffffffffffffffffffffffffffffffffffffffff1681526020019081526020016000206000820151816000015560208201518160010155905050610de7565b6001600086815260200190815260200160002060008773ffffffffffffffffffffffffffffffffffffffff1673ffffffffffffffffffffffffffffffffffffffff168152602001908152602001600020600080820160009055600182016000905550505b600260009054906101000a900473ffffffffffffffffffffffffffffffffffffffff1673ffffffffffffffffffffffffffffffffffffffff1663f242432a87610e2e611353565b88886040518563ffffffff1660e01b8152600401610e4f9493929190611c41565b600060405180830381600087803b158015610e6957600080fd5b505af1158015610e7d573d6000803e3d6000fd5b50505050600260009054906101000a900473ffffffffffffffffffffffffffffffffffffffff1673ffffffffffffffffffffffffffffffffffffffff1663f242432a610ec7611353565b886001866040518563ffffffff1660e01b8152600401610eea9493929190611c41565b600060405180830381600087803b158015610f0457600080fd5b505af1158015610f18573d6000803e3d6000fd5b50505050610f24611353565b73ffffffffffffffffffffffffffffffffffffffff168673ffffffffffffffffffffffffffffffffffffffff167f9387a595ac4be9038bbb9751abad8baa3dcf219dd9e19abb81552bd521fe3546878786604051610f8493929190611e7c565b60405180910390a3505050505050565b610f9c611353565b73ffffffffffffffffffffffffffffffffffffffff16610fba61104b565b73ffffffffffffffffffffffffffffffffffffffff1614611010576040517f08c379a000000000000000000000000000000000000000000000000000000000815260040161100790611dfd565b60405180910390fd5b6110186114ed565b565b6001602052816000526040600020602052806000526040600020600091509150508060000154908060010154905082565b60008060019054906101000a900473ffffffffffffffffffffffffffffffffffffffff16905090565b8161107d611353565b73ffffffffffffffffffffffffffffffffffffffff168173ffffffffffffffffffffffffffffffffffffffff1614806111665750600260009054906101000a900473ffffffffffffffffffffffffffffffffffffffff1673ffffffffffffffffffffffffffffffffffffffff1663e985e9c5826110f8611353565b6040518363ffffffff1660e01b8152600401611115929190611c18565b60206040518083038186803b15801561112d57600080fd5b505afa158015611141573d6000803e3d6000fd5b505050506040513d601f19601f820116820180604052508101906111659190611714565b5b6111a5576040517f08c379a000000000000000000000000000000000000000000000000000000000815260040161119c90611d7d565b60405180910390fd5b6001600083815260200190815260200160002060008473ffffffffffffffffffffffffffffffffffffffff1673ffffffffffffffffffffffffffffffffffffffff168152602001908152602001600020600080820160009055600182016000905550508273ffffffffffffffffffffffffffffffffffffffff167f6adffa6ee6a85f2174641874fb9af8eb391b7afd24a4ea6f08047a866b06b3f18360405161124e9190611e38565b60405180910390a2505050565b611263611353565b73ffffffffffffffffffffffffffffffffffffffff1661128161104b565b73ffffffffffffffffffffffffffffffffffffffff16146112d7576040517f08c379a00000000000000000000000000000000000000000000000000000000081526004016112ce90611dfd565b60405180910390fd5b600073ffffffffffffffffffffffffffffffffffffffff168173ffffffffffffffffffffffffffffffffffffffff161415611347576040517f08c379a000000000000000000000000000000000000000000000000000000000815260040161133e90611d3d565b60405180910390fd5b611350816113fc565b50565b600033905090565b6113636107a8565b6113a2576040517f08c379a000000000000000000000000000000000000000000000000000000000815260040161139990611cfd565b60405180910390fd5b60008060006101000a81548160ff0219169083151502179055507f5db9ee0a495bf2e6ff9c91a7834c1ba4fdd244a5e8aa4e537bd38aeae4b073aa6113e5611353565b6040516113f29190611bfd565b60405180910390a1565b60008060019054906101000a900473ffffffffffffffffffffffffffffffffffffffff16905081600060016101000a81548173ffffffffffffffffffffffffffffffffffffffff021916908373ffffffffffffffffffffffffffffffffffffffff1602179055508173ffffffffffffffffffffffffffffffffffffffff168173ffffffffffffffffffffffffffffffffffffffff167f8be0079c531659141344cd1fd0a4f28419497f9722a3daafe3b4186f6b6457e060405160405180910390a35050565b600081836114cf9190611ed5565b905092915050565b600081836114e59190611f2f565b905092915050565b6114f56107a8565b15611535576040517f08c379a000000000000000000000000000000000000000000000000000000000815260040161152c90611d9d565b60405180910390fd5b60016000806101000a81548160ff0219169083151502179055507f62e78cea01bee320cd4e420270b5ea74000d11b0c9f74754ebdbfc544b05a258611578611353565b6040516115859190611bfd565b60405180910390a1565b604051806040016040528060008152602001600081525090565b6000813590506115b881611fda565b92915050565b6000815190506115cd81611ff1565b92915050565b6000813590506115e281612008565b92915050565b6000815190506115f781612008565b92915050565b60006020828403121561160f57600080fd5b600061161d848285016115a9565b91505092915050565b6000806040838503121561163957600080fd5b6000611647858286016115a9565b9250506020611658858286016115d3565b9150509250929050565b60008060006060848603121561167757600080fd5b6000611685868287016115a9565b9350506020611696868287016115d3565b92505060406116a7868287016115d3565b9150509250925092565b600080600080608085870312156116c757600080fd5b60006116d5878288016115a9565b94505060206116e6878288016115d3565b93505060406116f7878288016115d3565b9250506060611708878288016115d3565b91505092959194509250565b60006020828403121561172657600080fd5b6000611734848285016115be565b91505092915050565b60006020828403121561174f57600080fd5b600061175d848285016115e8565b91505092915050565b6000806040838503121561177957600080fd5b6000611787858286016115d3565b9250506020611798858286016115a9565b9150509250929050565b6117ab81611f63565b82525050565b6117ba81611f75565b82525050565b60006117cd604e83611ec4565b91507f4d61726b6574706c6163653a20746865206d61726b6574706c61636520636f6e60008301527f7472616374206973206e6f7420616464656420617320616e206f70657261746f60208301527f72206f662074686520746f6b656e0000000000000000000000000000000000006040830152606082019050919050565b6000611859601483611ec4565b91507f5061757361626c653a206e6f74207061757365640000000000000000000000006000830152602082019050919050565b6000611899605283611ec4565b91507f4d61726b6574706c6163653a20746865206d61726b6574706c61636520636f6e60008301527f7472616374206973206e6f7420616464656420617320616e206f70657261746f60208301527f72206f66207468652043525020746f6b656e00000000000000000000000000006040830152606082019050919050565b6000611925602683611ec4565b91507f4f776e61626c653a206e6577206f776e657220697320746865207a65726f206160008301527f64647265737300000000000000000000000000000000000000000000000000006020830152604082019050919050565b600061198b603483611ec4565b91507f4d61726b6574706c6163653a2074686520627579657220686173206e6f74206560008301527f6e6f7567682062616c616e6365206f66204352500000000000000000000000006020830152604082019050919050565b60006119f1603583611ec4565b91507f4d61726b6574706c6163653a2063616c6c6572206973206e6f7420455243313160008301527f3535206f776e6572206e6f7220617070726f76656400000000000000000000006020830152604082019050919050565b6000611a57601083611ec4565b91507f5061757361626c653a20706175736564000000000000000000000000000000006000830152602082019050919050565b6000611a97602a83611ec4565b91507f4d61726b6574706c6163653a207175616e74697479206772656174657220746860008301527f616e20616c6c6f776564000000000000000000000000000000000000000000006020830152604082019050919050565b6000611afd602483611ec4565b91507f4d61726b6574706c6163653a20746f6b656e496420646f6573206e6f7420657860008301527f69737473000000000000000000000000000000000000000000000000000000006020830152604082019050919050565b6000611b63602083611ec4565b91507f4f776e61626c653a2063616c6c6572206973206e6f7420746865206f776e65726000830152602082019050919050565b6000611ba3600083611eb3565b9150600082019050919050565b604082016000820151611bc66000850182611bdf565b506020820151611bd96020850182611bdf565b50505050565b611be881611fa1565b82525050565b611bf781611fa1565b82525050565b6000602082019050611c1260008301846117a2565b92915050565b6000604082019050611c2d60008301856117a2565b611c3a60208301846117a2565b9392505050565b600060a082019050611c5660008301876117a2565b611c6360208301866117a2565b611c706040830185611bee565b611c7d6060830184611bee565b8181036080830152611c8e81611b96565b905095945050505050565b6000604082019050611cae60008301856117a2565b611cbb6020830184611bee565b9392505050565b6000602082019050611cd760008301846117b1565b92915050565b60006020820190508181036000830152611cf6816117c0565b9050919050565b60006020820190508181036000830152611d168161184c565b9050919050565b60006020820190508181036000830152611d368161188c565b9050919050565b60006020820190508181036000830152611d5681611918565b9050919050565b60006020820190508181036000830152611d768161197e565b9050919050565b60006020820190508181036000830152611d96816119e4565b9050919050565b60006020820190508181036000830152611db681611a4a565b9050919050565b60006020820190508181036000830152611dd681611a8a565b9050919050565b60006020820190508181036000830152611df681611af0565b9050919050565b60006020820190508181036000830152611e1681611b56565b9050919050565b6000604082019050611e326000830184611bb0565b92915050565b6000602082019050611e4d6000830184611bee565b92915050565b6000604082019050611e686000830185611bee565b611e756020830184611bee565b9392505050565b6000606082019050611e916000830186611bee565b611e9e6020830185611bee565b611eab6040830184611bee565b949350505050565b600082825260208201905092915050565b600082825260208201905092915050565b6000611ee082611fa1565b9150611eeb83611fa1565b9250817fffffffffffffffffffffffffffffffffffffffffffffffffffffffffffffffff0483118215151615611f2457611f23611fab565b5b828202905092915050565b6000611f3a82611fa1565b9150611f4583611fa1565b925082821015611f5857611f57611fab565b5b828203905092915050565b6000611f6e82611f81565b9050919050565b60008115159050919050565b600073ffffffffffffffffffffffffffffffffffffffff82169050919050565b6000819050919050565b7f4e487b7100000000000000000000000000000000000000000000000000000000600052601160045260246000fd5b611fe381611f63565b8114611fee57600080fd5b50565b611ffa81611f75565b811461200557600080fd5b50565b61201181611fa1565b811461201c57600080fd5b5056fea26469706673582212206d11a82076a170f8914de0c8e9f9911d10d270dec7aeadb33a33072effbec22f64736f6c63430008000033",
  "linkReferences": {},
  "deployedLinkReferences": {}
}